:020000040000FA
:10000000380A0020E5020000ED020000EF020000C7
:10001000F1020000F3020000F50200000000000001
:10002000000000000000000000000000F7020000D7
:10003000F902000000000000FB020000513F000038
:10004000FF0200000103000003030000050300009D
:1000500007030000090300000B0300000D0300006C
:100060000F0300001103000013030000150300003C
:1000700017030000190300001B0300001D0300000C
:100080001F030000210300002303000025030000DC
:1000900027030000290300002B0300002D030000AC
:1000A0002F0300003103000033030000350300007C
:1000B00037030000390300003B0300003D0300004C
:1000C0003F0300004103000043030000450300001C
:1000D00047030000490300004B0300004D030000EC
:1000E0004F030000510300005303000055030000BC
:1000F00057030000590300005B0300005D0300008C
:100100005F0300006103000063030000650300005B
:1001100067030000690300006B0300006D0300002B
:100120006F030000710300007303000075030000FB
:1001300077030000790300007B0300007D030000CB
:100140007F03000081030000830300009D03000083
:1001500000000000000000009F030000A103000059
:10016000A3030000A503000000000000A703000097
:10017000A9030000AB030000AD030000AF030000C3
:10018000B1030000B3030000B5030000B703000093
:10019000B9030000BB030000BD030000BF03000063
:1001A000C1030000C3030000C5030000C703000033
:1001B000C9030000CB030000CD030000CF03000003
:1001C000D1030000D3030000D5030000D7030000D3
:1001D000D9030000DB030000DD030000DF030000A3
:1001E000E1030000E3030000E5030000E703000073
:1001F000E9030000EB030000ED030000EF03000043
:1002000000F002F800F047F80AA090E8000C8244E1
:100210008344AAF10107DA4501D100F03CF8AFF2BE
:10022000090EBAE80F0013F0010F18BFFB1A43F0D4
:1002300001031847E450000004510000103A24BFA5
:1002400078C878C1FAD8520724BF30C830C144BF3B
:1002500004680C607047000000230024002500267D
:10026000103A28BF78C1FBD8520728BF30C148BF19
:100270000B607047752900F03581782900F06E8198
:10028000732900F04A83002070471FB504F080FDF9
:100290001FBD10B510BD00F066FB1146FFF7F5FF5E
:1002A00004F0FCFC00F084FB03B4FFF7F2FF03BC96
:1002B00000F08CFB0138FDD170470000EFF3108097
:1002C00072B67047EFF310807047EFF3108062B69C
:1002D000704730BF704780F311887047EFF311808B
:1002E000704700004548804745480047FEE7FEE765
:1002F000FEE7FEE7FEE7FEE7FEE7FEE7FEE7FEE7D6
:10030000FEE7FEE7FEE7FEE7FEE7FEE7FEE7FEE7C5
:10031000FEE7FEE7FEE7FEE7FEE7FEE7FEE7FEE7B5
:10032000FEE7FEE7FEE7FEE7FEE7FEE7FEE7FEE7A5
:10033000FEE7FEE7FEE7FEE7FEE7FEE7FEE7FEE795
:10034000FEE7FEE7FEE7FEE7FEE7FEE7FEE7FEE785
:10035000FEE7FEE7FEE7FEE7FEE7FEE7FEE7FEE775
:10036000FEE7FEE7FEE7FEE7FEE7FEE7FEE7FEE765
:10037000FEE7FEE7FEE7FEE7FEE7FEE7FEE7FEE755
:10038000FEE7FEE7FEE7FEE7FEE7FEE7FEE7FEE745
:10039000FEE7FEE7FEE7FEE7FEE7FEE7FEE7FEE735
:1003A000FEE7FEE7FEE7FEE7FEE7FEE7FEE7FEE725
:1003B000FEE7FEE7FEE7FEE7FEE7FEE7FEE7FEE715
:1003C000FEE7FEE7FEE7FEE7FEE7FEE7FEE7FEE705
:1003D000FEE7FEE7FEE7FEE7FEE7FEE7FEE7FEE7F5
:1003E000FEE7FEE7FEE7FEE7FEE7FEE7FEE7FEE7E5
:1003F00004480549034A054B70470000454000008A
:100400000102000038020020380A002038020020D3
:100410000FB41CB50C0007AA009001D02044401E68
:10042000074B7B4469460190069800F044FA002C83
:1004300003D06946002000F051FA1CBC5DF814FBA3
:10044000C104000070B5044685690068C10601D585
:10045000302600E02026C00707D070BDD4E9012176
:1004600030469047206A401C20626D1EF6D570BD54
:1004700070B5044685690078C00707D170BDD4E91E
:10048000012120209047206A401C20626D1EF6D575
:1004900070BD70B50C460546012A05D02878800647
:1004A00000D5EA69002302E0012305E05B1C9342CA
:1004B00002D2E05C0028F9D1A869E618C01AA86148
:1004C000286A184428622846FFF7BCFF04E0D5E9F3
:1004D000012114F8010B9047B442F8D32846FFF7E6
:1004E000C7FF70BD2DE9F04106460024106875294C
:1004F000314616A510D0AFF30080002802DA404242
:1005000013A507E031688A0701D512A502E0490763
:1005100004D511A5012401E0AFF3008000210A22D7
:1005200006F1240709E0B0FBF2FCB0FBF2F302FB9A
:100530001C00303078541846491C0028F3D123465B
:100540002A463046BDE8F04100F056B900000000F0
:100550002D0000002B0000002000000070B50446B4
:100560000D4621461068AFF300802188090502D5A9
:100570000F4A7A4402E00E4A7A440E32002104F116
:10058000240305E000F00F060009965D5E54491C47
:100590000028F7D120780023000704D5702D02D061
:1005A00009B1022311322046BDE8704000F024B9A1
:1005B000DA4C00002DE9F05F894604464FF0000A4E
:1005C000DFF874B1FB44C0F820A02046E1688847FA
:1005D000002874D0252806D0D4E901219047206A4C
:1005E000401C2062F1E700265F462046E16888470C
:1005F0002028054607DB312D05D2781910F8200C8C
:1006000008B10643F1E7B00701D526F00406C4F8A7
:100610001CA00027C4F818A02A2D09D0284604F0F1
:1006200035FB38B304EB8708303DC8F8185019E0A3
:1006300059F8041B204604EB87029161E168884762
:10064000012F054618D1E069002820DA26F020069F
:100650001DE0D8F8180000EB800005EB40003038B2
:10066000C8F818002046E1688847054604F00EFBEC
:100670000028EED1012F0AD02E2D08D12046E168A6
:1006800088477F1C0546022F46F02006C4DBA06980
:10069000002803DA404246F00106A061F00701D0CD
:1006A00026F010066C2D0BD0682D09D04C2D39D0BA
:1006B0006A2D35D0742D35D07A2D33D016E038E040
:1006C000E1682F4620468847B842054609D16C2F7D
:1006D00026D04FF48060E1680643204688470546EF
:1006E00004E06C2F1AD04FF4807006430DB3A5F1CF
:1006F0004100192802D8203546F400664A462946AA
:10070000204626604E46FFF7B5FD80B101280BD08C
:10071000F61D26F0070000F1080956E74020E4E73F
:100720008020D8E70020D6E706F104094DE72846E7
:1007300052E7206ABDE8F09FB04C000040EA010398
:1007400010B59B070FD1042A0DD310C808C9121F7A
:100750009C42F8D020BA19BA884201D9012010BDB4
:100760004FF0FF3010BD1AB1D30703D0521C07E081
:10077000002010BD10F8013B11F8014B1B1B07D1E5
:1007800010F8013B11F8014B1B1B01D1921EF1D156
:10079000184610BD02F0FF0343EA032242EA024278
:1007A00000F0C1B84FF0000200B5134694469646DB
:1007B000203922BFA0E80C50A0E80C50B1F1200174
:1007C000BFF4F7AF090728BFA0E80C5048BF0CC022
:1007D0005DF804EB890028BF40F8042B08BF704780
:1007E00048BF20F8022B11F0804F18BF00F8012BF2
:1007F00070477047704770472DE9F0470D4699469E
:100800009246044600F124080168880604D5E06990
:1008100021F01001216000E00120A84201DD471B0A
:1008200000E00027A1697A1902EB0900081AA0610B
:100830002078C00602D42046FFF704FE002608E018
:10084000D4E901211AF806009047206A401C761C62
:1008500020624E45F4DB2078C0060AD52046FFF71B
:10086000F1FD06E0D4E9012130209047206A401CC8
:100870002062381EA7F10107F4DC07E0D4E901216A
:1008800018F805009047206A401C2062281EA5F138
:100890000105F3DC2046FFF7EBFD2078000602D5CA
:1008A0000220BDE8F0870120FBE7000001694A1C37
:1008B00002610878704700B58FB0CDE901310021A1
:1008C000059105497944CDE9031011466846FFF7C3
:1008D00071FE0FB000BD0000E5FFFFFF0A6802F8DF
:1008E000010B0A607047D1E900239A4202D2531CDF
:1008F0000B601070704710B5436913B1AFF30080FF
:1009000001E0FFF7C6FD012010BD127800F12401BF
:100910000A7000224A700122EDE711684FF0FF32A1
:10092000E9E74FF000020429C0F0128010F0030C38
:100930003FF43AAFCCF1040CBCF1020F18BF00F841
:10094000012BA8BF20F8022BA1EB0C01FFF72CBF55
:100950005FEAC17C24BF00F8012B00F8012B48BFDF
:1009600000F8012B7047754600F02CF8AE460500E4
:100970006946534620F00700854618B020B5FFF7BA
:1009800037FDBDE820404FF000064FF000074FF064
:1009900000084FF0000B21F00701AC46ACE8C0099D
:1009A000ACE8C009ACE8C009ACE8C0098D467047A6
:1009B00010B50446AFF300802046BDE81040FFF7B5
:1009C00073BC000000487047D8010020014918207E
:1009D000ABBEFEE726000200704770B50446A07962
:1009E000401CA071A0793C2800D270BD0020A071ED
:1009F0006079401C607160793C2800D2F5E70020E6
:100A000060712079401C20712079182800D2ECE711
:100A100000202071E078401CE070A178208800F070
:100A2000DBFB0546E078A84200DCDEE70120E07051
:100A3000A078401CA070A0780C2800D8D5E7012031
:100A4000A0702088401C208000BFCEE70B480078B3
:100A500000B970470A480078401C0321B0FBF1F24E
:100A600001FB1200064908700648006841F288310F
:100A700008440549086000BFEBE70000470000207C
:100A8000480000202800002058000020002103E03A
:100A9000382242544A1CD1B20829F9D3FF220272EB
:100AA00070470000F0B50146002000230622002414
:100AB0001D4D2D7815B11D4D2D7805B1F0BD1C4D86
:100AC0002D7815B90020012308E0194D2D78012D4E
:100AD00002D10220032301E004200523154D2D78C7
:100AE000012D0FD1571EFF1AFDB2571E3F1AFEB23D
:100AF000082A02D2C2F10807FCB22F19F8B237193E
:100B0000FBB200BF082B00D3072308E020250D54BB
:100B10000D7A01268640B5430D72451CE8B2984215
:100B2000F4DD00BFCAE70000470000206C00002091
:100B300048000020460000207CB504460D461646BD
:100B4000E07828B908A231462846FFF761FC7CBD51
:100B5000A0786178CDE90010237804A231462846B8
:100B6000FFF756FC00BFF2E74F46460025303275CE
:100B70002E253032752E2530327500002DE9FC41CE
:100B800004460D46164620886421B0FBF1F201FBB5
:100B90001207E078A1783B4604A2CDE90010314667
:100BA0002846FFF735FCBDE8FC8100002530327592
:100BB0002E253032752E2530327500007CB5044666
:100BC0000D461646E078A178CDE90010238803A2EF
:100BD00031462846FFF71CFC7CBD000025303475EB
:100BE0002E25303275253032750000007CB5044664
:100BF0000D461646A0796179CDE90010237903A24C
:100C000031462846FFF704FC7CBD000025303275D4
:100C10002E253032752E25303275000000213E48D9
:100C20000078072812D03C48007858B13A4800783C
:100C3000022807D038480078042803D036480078C6
:100C4000062801D1FF2070470020FCE733480078D8
:100C500040B931480078072804D13148007808B9F4
:100C60000020F0E72F4800682F4A1268904205D90B
:100C70002E48007810B12D480078E4E72C48007821
:100C800008B141F001012B48C07808B141F00201E0
:100C900029480078022804D12848007808B181F05A
:100CA00002011F48007808B141F004011E480068A5
:100CB000234A1268904201D241F008011A480068A4
:100CC000204A1268904201D241F010011E4800787B
:100CD000012807D100211648007808B141F0010130
:100CE0000846B0E719480078012801D141F04001D9
:100CF0001748006868B10C4A1268154B1B68D01A77
:100D0000144A904202D30A4A12780AB141F0800193
:100D100000BF084697E70000650000205C00002047
:100D200047000020B800002028000020B500002067
:100D30006D00002040000020A70000206E00002071
:100D4000840000208800002045000020460000208C
:100D500098000020005C260538B504460D465C4826
:100D6000007828B95BA229462046FFF751FB38BD21
:100D700057480078012805D158A229462046FFF798
:100D800047FBF4E752480078022805D154A22946CF
:100D90002046FFF73DFBEAE74D480078032805D1E0
:100DA0004EA229462046FFF733FBE0E7484800788B
:100DB000042805D14DA229462046FFF729FBD6E796
:100DC00043480078052805D144A229462046FFF76C
:100DD0001FFBCCE73E480078062805D145A22946EE
:100DE0002046FFF715FBC2E744480078012805D1EB
:100DF0002A4621464248FFF7C1FEB8E73F4800783F
:100E0000022805D12A4621463D48FFF7EFFEAEE70E
:100E10003A480078032805D12A4621463948FFF789
:100E20008BFEA4E7384800683849096888420AD927
:100E3000374801F0C5FD30B1354B36A22946204672
:100E4000FFF7E6FA93E73448007848B13348007872
:100E500030B1324B2FA229462046FFF7D9FA86E758
:100E60002F48007801280DD12E48007850B92E481F
:100E7000407900902C4803792CA229462046FFF7A0
:100E8000C7FA74E727480078012805D12A46214689
:100E90002548FFF773FE6AE722480078022805D14B
:100EA0002A462146204800F047F860E71D480078B0
:100EB000032805D12A4621461B48FFF77FFE56E747
:100EC0002A4621461848FFF791FE00BF4FE7000071
:100ED00065000020383838383838383800000000CD
:100EE0003331393130313032000000004348454E53
:100EF0005948000056322E32000000004700002002
:100F00004A00002052000020B800002028000020E5
:100F10008E0100202573000078000020F4000020DE
:100F200045000020440000203800002025303275A4
:100F30002E253032750000002DE9F04106460C46A2
:100F40001546304600F010F8054951F820703B4630
:100F500004A229462046FFF75BFABDE8F0810000B5
:100F6000CC000020257300002DE9F04101460A88DD
:100F70008B78CF78032B04D203F10C00C3B2501E40
:100F800082B26420B2FBF0FC00FB1C24B2FBF0F543
:100F9000581C00EB800C0CEBC0004FF0050CB0FBB4
:100FA000FCF03844204400EB940000EB95000CFB6F
:100FB00005004FF0070CB0FBFCF80CFB1806701D89
:100FC000B0FBFCF80CFB1800BDE8F08100200749DD
:100FD0000870074908700749086007490860074911
:100FE00008700749087007490870704778000020AA
:100FF000F400002070000020740000207900002020
:101000007A0000206400002010B500F027FC094899
:10101000007808B1FFF7DAFF002007490870074998
:10102000087000F06DF80649096808440549086031
:1010300010BD000078000020640000207B0000202C
:10104000280000206000002010B50B490B4802F07A
:10105000ADFD0B490860084600684FF47A71B0FB9B
:10106000F1F4204602F06EFF02F05EFF02F063FF33
:1010700001F0C6FE10BD0000002D3101800600F118
:10108000340000202DE9F04707460E4690461C46E6
:101090004FF00009202208212046FFF77BFB0020AB
:1010A000207216480078012805D1082E03D2C6F117
:1010B000080000F0FF0900251AE008EB0502D0B295
:1010C00009EB0502D1B2B04200DB13E0082900D3DE
:1010D00010E017F81020625407EB400252782AB152
:1010E000227A01238B40DBB21A432272681CC5B2FC
:1010F000082DE2D300BFBDE8F087000046000020C5
:101100002DE9F04100251B48007828B11A480078E5
:1011100010B11948057809E01648007830B9174829
:101120000078022802D100F02DF80546CDB1144810
:10113000007810B141F2883001E04FF4FA500646D1
:10114000284602F03FFB471C41F28830864200D21D
:101150000646B6FBF7F4962C00D296242046BDE84E
:10116000F0810748007810B14FF4FA70F7E74FF4B8
:101170007A70F4E778000020790000204400002015
:101180005D00002010B5C0B0402130A8FFF7E4FD9D
:101190000F480078012805D1402220A930A802F08C
:1011A000DDFA05E030AB0BA2402120A8FFF730F9B3
:1011B0004022694620A803F049FD0446082C04D9C2
:1011C000A4F10800C0B240B010BD0020FBE7000051
:1011D000460000202573000070B505460C460CB192
:1011E0000C2C01D91F2070BD022C05D1284601F01E
:1011F00047FE08B11D20F6E7601E0149085CF2E7D2
:10120000C64D000010B500200949C8700949C870D2
:1012100009490870094908700949086002F0A6FCEC
:10122000032000F065F9012002F0C4F810BD0000B1
:10123000400000205200002047000020480000200D
:101240005800002010B5002400220621222001F0C1
:101250008FFC0F480F490978425C0521222001F0DC
:1012600087FC0C48017801208840C4B22246062140
:10127000222001F07DFC07480078401C05490870D9
:1012800008460078082801D30020087010BD00002F
:101290009C000020A400002010B50220FFF70AF8EF
:1012A0000C4CA06910F0010FFBD1E06910F00C0F9D
:1012B0000ED1094802F01AFE0220FEF7FBFFA069DA
:1012C00010F0010FFBD1E06910F00C0008BF10BD59
:1012D000022010BD00F00A40005800F02DE9F05F38
:1012E000DFF848810646D8F8180010F0010FFAD14F
:1012F0008809C8F80400C1F38300C8F80800DFF8C3
:101300003091DFF830A195084FF0000B67D0C80985
:10131000012101FA00F0C743DAF800104648014005
:10132000A1F18050B0F5A02002BFDAF8000080B231
:10133000002813D10A20FEF7BDFF0320C9F8FC00E6
:101340000A20FEF7B7FF3D48C0F8C0720A20FEF73A
:10135000B1FFC9F8FCB00A20FEF7ACFF3068C8F84E
:1013600014000A20FEF7A6FFD8F8184014F0010F69
:10137000FAD114F0100F24D0DAF800102E480140F2
:10138000A1F18050B0F5A02002BFDAF8000080B2D1
:10139000002813D10A20FEF78DFF0320C9F8FC00B6
:1013A0000A20FEF787FF2548C0F8C0B20A20FEF7E2
:1013B00081FFC9F8FCB00A20FEF77CFF2046BDE89B
:1013C000F09F6D1E06F1040609D0D8F80800002829
:1013D000A2D1D8F80400401CC8F804009CE7DAF851
:1013E000001015480140A1F18050B0F5A02002BFC7
:1013F000DAF8000080B2002813D10A20FEF75AFF65
:101400000320C9F8FC000A20FEF754FF0B48C0F87F
:10141000C0B20A20FEF74EFFC9F8FCB00A20FEF762
:1014200049FFD8F81800BDE8F09F000000F00A401E
:1014300000D00F4000E00F400000FF7000E00A40C5
:101440000B4B4FEA911CC3F804C0C1F383019960B0
:10145000910808BF70475A6940F8042B491E08BF1D
:1014600070479A68002AF6D15A68521C5A60F2E70F
:1014700000F00A4030B591B0002419E01648055D2F
:10148000202D03D15F200EA908550FE05F2D03D159
:101490007E200EA9085509E0284601F0B8FC10B1DD
:1014A0000EA8055502E05F200EA90855601CC4B2C5
:1014B000082CE3D300208DF840000748007A0EABDB
:1014C00006A23021009002A8FEF7A2FF02A803F0B6
:1014D00047FB11B030BD00007C0100202A45565466
:1014E0003A444953502025732025303258000000DB
:1014F00010B598B00446012C0FD1202210A917482E
:10150000FFF75CFB10AB16A240216846FEF780FF98
:10151000684603F025FB18B010BD022C0ED1202226
:1015200010A90E48FFF762FB10AB12A240216846DB
:10153000FEF76EFF684603F013FBECE7202210A9CC
:101540001148FFF7F9FA10AB10A240216846FEF7E8
:101550005FFF684603F004FB00BFDCE738000020B3
:101560002A4556543A45444954204441544520257F
:10157000730000002A4556543A45444954205449C2
:101580004D45202573000000400000202A45565498
:101590003A4544495420414C41524D2025730000A6
:1015A00010B588B00446064850F8243005A2202122
:1015B0006846FEF72DFF684603F0D2FA08B010BD6A
:1015C000000000202A4556543A4B45592025730007
:1015D00000B587B00548037805A2182101A8FEF7D9
:1015E00017FF01A803F0BCFA07B000BDA50000205A
:1015F0002A4556543A4C45442025303258000000C4
:1016000010B505490978012901D104A100E007A11D
:10161000084603F0A5FA10BD450000202A4556549F
:101620003A4D4F4445204E49474854002A455654A8
:101630003A4D4F44452044415900000070B50446DE
:10164000204602F0E9FF0546A5F12000402870D2AF
:10165000DFE800F06C6F6F6F6F6F6F6F6F6F6F6FA2
:101660006F686F6F20222426282A2C2E30326F6F4D
:101670006F6F6F6F6F3436383A3C3E404244464895
:101680004A4C4E50525456585A5C5E606264666FC3
:101690006F6F6F6A3F2070BD0620FCE75B20FAE7A2
:1016A0004F20F8E76620F6E76D20F4E77D20F2E7AB
:1016B0000720F0E77F20EEE76F20ECE77720EAE7EE
:1016C0007C20E8E73920E6E75E20E4E77920E2E7DE
:1016D0007120E0E73D20DEE77620DCE70620DAE750
:1016E0001E20D8E77620D6E73820D4E73720D2E787
:1016F0005420D0E73F20CEE77320CCE76720CAE72D
:101700005020C8E76D20C6E77820C4E73E20C2E736
:101710003E20C0E73E20BEE77620BCE76E20BAE759
:101720005B20B8E74020B6E70820B4E70020B2E726
:10173000FFE70020AFE700000B49087000210B4ACB
:1017400011700B49096841F288321144094A11604D
:1017500009490A4A13680B6052684A600849094AF5
:1017600012680A607047000047000020480000200F
:1017700028000020580000204A00002038000020E7
:10178000520000204000002070B504462A48057829
:10179000002C45D00078002842D027480078012846
:1017A00017D1264800882649088024488078887008
:1017B0002248C078C870084602F0FEFE2148006842
:1017C00042F210710844204908602846FFF790FE55
:1017D00026E019480078022817D1184800791849DE
:1017E0000871164840794871144880798871084614
:1017F00002F0E2FE1348006842F2107108441249F8
:1018000008602846FFF774FE0AE00B4800780328BA
:1018100006D10E480E49096801602846FFF768FEA8
:101820000020054908700B4908700B490860012029
:1018300001F0C0FD70BD0000470000204A000020FC
:101840003800002028000020C800002040000020B0
:1018500052000020480000205800002000200649C7
:101860000860064908600648007820B10020054954
:101870000870034908707047B8000020C0000020BD
:10188000BC0000205C000020D0F8003412F0010FF2
:1018900014BF0B438B43C0F8003412F0020FD0F892
:1018A000202414BF114322EA0101C0F8201470471C
:1018B0002DE9F00301264FF0000C0325C2F3411778
:1018C00006FA0CF40C4211D0D0F8C48F4FEA4C0445
:1018D00005FA04F928EA0908C0F8C48FD0F8C48FC3
:1018E00007FA04F448EA0404C0F8C44F0CF1010CF0
:1018F0000CF0FF0CBCF1080FE2D3D0F800C512F0D9
:10190000010F14BF4CEA010C2CEA010CC0F800C511
:10191000D0F804C512F0020F14BF4CEA010C2CEAF7
:10192000010CC0F804C5D0F808C512F0040F14BFAC
:101930004CEA010C2CEA010CC0F808C5D0F818C517
:1019400012F0080F14BF4CEA010C2CEA010CC0F88D
:1019500018C512F0100FD0F83C2514BF0A438A4373
:10196000C0F83C25D0F80C2513F0010F14BF0A4332
:101970008A43C0F80C25D0F8102513F0020F14BFCD
:101980000A438A43C0F81025D0F8142513F0040F39
:1019900014BF0A438A43C0F81425D0F81C2513F05D
:1019A000080F14BF0A438A43C0F81C25D0F8442509
:1019B00013F4007F14BF0A438A43C0F84425D0F8CB
:1019C000402513F4407F14BF0A438A43C0F84025E2
:1019D000D0F82825002B0CBF114322EA0101C0F8E2
:1019E0002815BDE8F00370470E4AC0F30741D26ED8
:1019F00001238B401A420C4A1ABF02EBC10149680D
:101A000052F83110020AD1F82C354FF00F0C0CFAB5
:101A100002FC00F00F0023EA0C0390401843C1F8C9
:101A20002C05704700E00F406C4F000050F821007B
:101A3000704730B50C4605460022FFF725FF2146CA
:101A40002846BDE8304008230122FFF731BF30B5FA
:101A50000C46054608230122FFF72AFF21462846A7
:101A6000BDE830400122FFF70FBF30B50C460546F8
:101A70000222FFF709FF21462846BDE8304009232E
:101A80000122FFF715BF30B50C4605460222FFF7CD
:101A9000FBFE21462846BDE8304008230122FFF71F
:101AA00007BF30B50C4605460222FFF7EDFE214682
:101AB0002846BDE8304008230122FFF7F9BE40F870
:101AC0002120704710B5264802F0E6F92448C01CD2
:101AD00002F0E2F92248001D02F0DEF92048C01DA4
:101AE00002F0DAF900BF1E4802F0EAF90028FAD045
:101AF0001B48C01C02F0E4F90028F4D01848001D6F
:101B000002F0DEF90028EED01548C01D02F0D8F929
:101B10000028E8D003211348FFF78BFF0A23012296
:101B200003211048FFF7C4FE11210F48FFF78FFF74
:101B300003210E48FFF78BFF20210D48FFF787FF99
:101B4000002211210848FFF7BAFF002203210748AD
:101B5000FFF7B5FF002220210548FFF7B0FF10BDB9
:101B6000050800F000D0034000500240004006404D
:101B70000010064010B504460CB1202000E0002003
:101B8000024620210148FFF79AFF10BD00100640D1
:101B900010B50648007808B9012000E0002003498C
:101BA0000870012001F006FC10BD00005C00002060
:101BB00010B50348007808B101F0EEFD10BD00003B
:101BC0004700002010B594B00446102210A920460A
:101BD00001F0CDFB0446042246A110A801F086FACC
:101BE000B0B1202208A94548FEF7C8FF4448007854
:101BF000012808D12022694608A801F0AFFD6846F7
:101C000002F092FF02E008A802F08EFF14B010BDAF
:101C100004223CA110A801F069FAA8B1202208A969
:101C20003648FEF7E3FF36480078012808D1202225
:101C3000694608A801F092FD684602F075FF02E0CF
:101C400008A802F071FFE1E7052230A110A801F019
:101C50004DFAC0B1202208A92E48FEF76DFF2D488D
:101C6000C07860B126480078012808D12022694652
:101C700008A801F073FD684602F056FF02E008A8CC
:101C800002F052FFC2E7042223A110A801F02EFAAD
:101C900048B12349097809B122A100E022A10846F0
:101CA00002F042FFB2E7062220A110A801F01EFABE
:101CB00050B113490978012901D11EA100E01FA1EB
:101CC000084602F031FFA1E704221EA110A801F08E
:101CD0000DFA50B11D490978012901D11CA100E07C
:101CE0001DA1084602F020FF90E71CA002F008FFAB
:101CF00000BF8BE74441544500000000380000203D
:101D00004600002054494D4500000000414C41521E
:101D10004D00000040000020444953504C41590000
:101D20005C0000204F4E00004F464600464F524D8B
:101D30004154000052494748540000004C45465465
:101D4000000000004D4F4445000000004500002009
:101D50004E49474854000000444159005041524107
:101D60004D00000070B504460D46092C10D177488F
:101D7000006848B17648006874490968401A40F222
:101D8000DC51884200D270BD714800686F4908601C
:101D900015B12046FFF704FC6E48007830B16C485E
:101DA000006841F2883108446B4908606B4800784C
:101DB000022809D144B901F0D9FE69A002F0D0FE91
:101DC000012001F0F7FADEE70A2C78D2DFE804F010
:101DD00005202326294D636CA2A35E48007818B91C
:101DE0000120FFF7A9FC12E05A480078012803D12E
:101DF0000220FFF7A1FC0AE056480078022803D130
:101E00000320FFF799FC02E00020FFF7BDFC97E0FC
:101E1000FEF71CFE94E000F03BFF91E001F0BCFCFB
:101E20008EE04C480078F8B9012051490870002034
:101E300050490870FFF712FD4F48007808B1FFF7CE
:101E4000C5F84E480078401C00F003004B4908706C
:101E500000204B4908704B490870FFF751F93C4985
:101E600009680844484908606AE04848007808B9A9
:101E7000012000E00020454908700846007810B1B4
:101E80004FF4FA7001E04FF47A7031490968084460
:101E90003D49086054E03E48007808B9012000E060
:101EA00000203B4908704BE000262A48007858B1D2
:101EB00028480078032803D1FFF7A4F963E73EE040
:101EC0000020FFF761FC5EE73248006810B1012690
:101ED000FFF7C4FC2848007810B10126FFF776F818
:101EE0002EB92D48C07810B1FFF78CF94BE786B9B1
:101EF00001201F49087000202049087020490870FF
:101F000020490870FFF7FCF81149096808441E4988
:101F1000086015E014E00F48007810B10020FFF7CA
:101F200033FC1E4800F04CFD30B90948006800F54C
:101F3000AF701B49086001E001F0FAFD00E000BF4E
:101F400000BF012001F036FA00BF1CE7940000201A
:101F5000280000204700002058000020A700002093
:101F60002A4556543A414C41524D5F4F4646000077
:101F70005C000020BC00002078000020440000200D
:101F8000640000207B000020600000205D00002035
:101F900046000020B8000020400000208E010020F4
:101FA000C000002010B504461548007828BB15482D
:101FB000005D10BB082C1AD113480068134909684A
:101FC000401AB0F5AF7F00D210BD0F48006810492D
:101FD0000968401AB0F57A6F00D2F5E70A48006840
:101FE0000B49086001210820FFF7BCFEECE7042C38
:101FF00003D101210420FFF7B5FE00BFE4E7000094
:102000004700002048010020280000209000002008
:102010008C00002070B59CB006464B4800681B90B1
:1020200000200190304601F00DFD0646032247A135
:10203000304601F05BF878B100204349C87001F0E8
:1020400095FD012001F0B6F90320FFF751FA0020B9
:1020500002F06AFD1CB070BD01AB032203A930463B
:1020600001F0A1F80546012D03D139A002F048FD89
:10207000F0E71DB138A002F043FDEBE700244EE08D
:1020800003A901EB441101F1100002A901F052F97A
:1020900018B92FA002F034FDDCE703A901EB4410CE
:1020A00004222FA101F022F858B10298172803D971
:1020B0002DA002F025FDCDE70298C0B28DF86C008E
:1020C0002BE003A901EB4410032229A101F00EF833
:1020D00058B102983B2803D923A002F011FDB9E7BB
:1020E0000298C0B28DF86D0017E003A901EB44100F
:1020F000032221A100F0FAFF58B102983B2803D92E
:1021000019A002F0FDFCA5E70298C0B28DF86E00A0
:1021100003E00FA002F0F4FC9CE7601CC4B29DF841
:1021200004008442ACDB01208DF86F0006481B9947
:102130000160012001F03EF90320FFF7D9F90020EA
:1021400002F0F2FC00BF85E7400000204F46460049
:10215000504152414D00000053594E544158000027
:10216000484F55520000000052414E4745000000C4
:102170004D494E55544500005345434F4E440000D1
:1021800010B586B00446102202A9204601F0EFF8EF
:10219000044601A902A801F0CDF820B90DA002F073
:1021A000AFFC06B010BD01980A2804D341F2883173
:1021B0000198884203D909A002F0A2FCF1E7019836
:1021C00001F09EFC012001F0F5F8002002F0ACFCCB
:1021D00000BFE6E7504152414D00000052414E47DA
:1021E0004500000070B59CB00646574801681A913A
:1021F00040681B90002000906B46032202A93046E5
:1022000000F0D1FF0546012D04D150A002F078FC6A
:102210001CB070BD1DB14FA002F072FCF8E70024A5
:1022200058E002A901EB441101F1100001A901F0ED
:1022300081F818B945A002F063FCE9E702A901EBB7
:102240004410042245A100F051FF88B10198B0F577
:10225000FA6F04D340F633010198884203D941A0B4
:1022600002F04EFCD4E7019880B2ADF868002FE090
:1022700002A901EB441005223CA100F037FF68B130
:10228000019810B101980C2803D936A002F038FC4F
:10229000BEE70198C0B28DF86A0019E002A901EB0F
:1022A0004410042233A100F021FF68B1019810B15D
:1022B00001981F2803D92BA002F022FCA8E701985F
:1022C000C0B28DF86B0003E020A002F019FC9FE77C
:1022D000601CC4B29DF800008442A2DB9DF86A1025
:1022E000BDF86800FEF778FF9DF86B10884203DAAE
:1022F0001CA002F005FC8BE7BDF8680012490880BD
:102300009DF86A0088709DF86B00C870084602F05E
:1023100053F91A48006842F21071084418490860DD
:10232000FEF772FE17480078022804D100201649F3
:10233000087016490870012001F03CF8002002F0F6
:10234000F3FB00BF64E70000380000205041524119
:102350004D00000053594E54415800005945415218
:102360000000000052414E47450000004D4F4E54C2
:1023700048000000444154450000000028000020AF
:10238000C800002044000020640000207B000020E2
:102390001FB5044610226946204600F0E8FF0446B7
:1023A000022212A1684600F0A1FE30B101201049BE
:1023B000087000200F4908700FE002220EA1684645
:1023C00000F094FE28B100200949087009490870FE
:1023D00003E00AA002F094FB1FBD012000F0EAFF19
:1023E000002002F0A1FB00BFF6E700004F4E000006
:1023F0005C000020BC0000204F4646005041524186
:102400004D0000001FB5044610226946204600F02A
:10241000AEFF0446042211A1684600F067FE18B121
:102420000020104908700DE005220FA1684600F059
:102430005DFE18B101200B49087003E00CA002F00A
:102440005FFB1FBD00200C490870012000F0B2FFA7
:10245000002002F069FB00BFF3E700004C45465442
:102460000000000046000020524947485400000088
:10247000504152414D0000006400002010B586B06C
:102480000446102202A9204600F071FF044601A96B
:1024900002A800F054FE20B90EA002F031FB06B0F5
:1024A00010BD9DF804000D4908709DF8040008B99E
:1024B000002004E00A48006842F21071084409490B
:1024C0000860012000F076FF002002F02DFB00BF25
:1024D000E5E70000504152414D0000007C00002023
:1024E000280000208000002070B590B005462846E6
:1024F00001F0A8FA0546287820B934A002F000FBC4
:1025000010B070BD2821284601F046FB0646202E5B
:1025100003D930A002F0F4FAF2E7284600F0C9FC33
:1025200018B92AA002F0ECFAEAE72B48007810B1BB
:102530000020FFF729F9FFF791F92848007808B142
:10254000FEF744FD01202649087000202549087047
:102550002B4625A221212548FDF75AFF01201F49BE
:102560000870234800682349086000202249087049
:1025700022490870202269461C4802F067FB044685
:10258000082C0CD81A48006841F28831084400F53C
:10259000FA601B49086000201A49087006E0002014
:1025A00017490860A4F1080016490870FEF7A8FD55
:1025B0000F490968084414490860012000F0FAFE38
:1025C000002002F0B1FA00BF9AE7000050415241EA
:1025D0004D0000004C454E004700002078000020D0
:1025E0005C000020BC00002025730000F4000020E7
:1025F0002800002070000020640000207A000020E5
:102600007400002079000020600000201FB50446FF
:1026100010226946204600F0AAFE0446032210A1BB
:10262000684600F063FD18B100200E4908700DE007
:1026300005220DA1684600F059FD18B10120094995
:10264000087003E00AA002F05BFA1FBD012000F051
:10265000B1FEFEF7D5FF002002F066FA00BFF4E7F6
:1026600044415900450000204E49474854000000AD
:10267000504152414D00000010B588B00446182268
:1026800002A9204600F073FE044601A902A800F04A
:1026900003FE20B908A002F033FA08B010BD9DF87F
:1026A000040001F003FA012000F084FE002002F093
:1026B0003BFA00BFF1E70000504152414D000000DD
:1026C00070B59CB00646484801681A9140681B9056
:1026D000002000906B46032202A9304600F063FD03
:1026E0000546012D04D141A002F00AFA1CB070BDCC
:1026F0001DB140A002F004FAF8E700244EE002A960
:1027000001EB441101F1100001A900F013FE18B90A
:1027100036A002F0F5F9E9E702A901EB4410042222
:1027200036A100F0E3FC58B10198172803D935A071
:1027300002F0E6F9DAE70198C0B28DF86C002BE000
:1027400002A901EB4410032230A100F0CFFC58B1E4
:1027500001983B2803D92BA002F0D2F9C6E70198D3
:10276000C0B28DF86D0017E002A901EB44100322FE
:1027700028A100F0BBFC58B101983B2803D921A047
:1027800002F0BEF9B2E70198C0B28DF86E0003E026
:1027900016A002F0B5F9A9E7601CC4B29DF80000CC
:1027A0008442ACDB9DF86C000F4908719DF86D0008
:1027B00048719DF86E0088711848006818490860D3
:1027C000094801F0F9FE1548006842F2107108440A
:1027D00014490860FEF718FC012000F0EBFD002012
:1027E00002F0A2F900BF81E73800002050415241B9
:1027F0004D00000053594E5441580000484F555267
:102800000000000052414E47450000004D494E5522
:10281000544500005345434F4E440000280000201B
:1028200098000020C80000202DE9F04190B0054636
:102830000020019002900390009000260027284677
:1028400001F000F905465DE010220CA9284600F0D1
:102850008EFD0546284601F0F5F80546287828B98A
:1028600048A002F04DF910B0BDE8F081202204A983
:10287000284600F07CFD0546042244A10CA800F087
:1028800035FC30B32022082101A8FDF783FF00208A
:102890008DF80C00002414E004A9085D00F0B7FADC
:1028A00018B93CA002F02CF9DDE704A8005D5F2810
:1028B00001D1202001E004A8005D01A90855601C99
:1028C000C4B2082C03D204A8005D0028E4D101267C
:1028D00014E0032231A10CA800F008FC50B16946B5
:1028E00004A800F02CFC18B92AA002F009F9BAE7F4
:1028F000012703E027A002F003F9B4E7284601F01E
:10290000A1F80546287800289ED106B11FB921A05C
:1029100002F0F6F8A7E701A800F052F820B920A2CB
:10292000092101A8FDF774FD01AB1FA209211F4871
:10293000FDF76EFD9DF800001D4908701D480068F8
:1029400028B91D4800681D490968884201D901203D
:1029500000E0002080461748006828B91648006843
:1029600016490968884201D901F0E2F8B8F1000F70
:1029700002D0012000F01EFD002002F0D5F800BFBB
:1029800071E7000053594E544158000044495350D8
:1029900000000000504152414D0000004C454400F1
:1029A0004E4F205758000000257300008E01002074
:1029B000B5000020C0000020B80000202800002042
:1029C00001460BE00878202807D008785F2804D05B
:1029D0000878092801D001207047491C0878002890
:1029E000F0D100BFF8E7000010B5264801F054FA16
:1029F000254801F051FA00BF224801F061FA002891
:102A0000FAD0214801F05CFA0028F5D01F48FEF703
:102A1000EBFF1F48FEF7E8FF04211E48FFF733F8DD
:102A200008211C48FFF721F801221B4801681B48B8
:102A300000F000F9194800F0EBF8FF220C212220E9
:102A400000F096F800220D21222000F091F80022DB
:102A50000E21222000F08CF800220521222000F017
:102A600087F800220621222000F082F800220321AC
:102A7000182000F07DF8FF220121182000F078F8DE
:102A800010BD0000002000F0010800F00208010065
:102A9000020C010000500040340000200000024001
:102AA00070B504460D46002000F040F808B9FF203C
:102AB00070BD00222146144800F0E6F8294612486D
:102AC00000F0A4F80721104800F09CF8012000F065
:102AD0002DF808B9FF20EBE700F018F80122214695
:102AE000094800F0D1F80721074800F08BF80120D1
:102AF00000F01CF808B9FF20DAE700F007F80248F8
:102B000000F082F8C0B2D3E70000024010B50548DB
:102B100000680549B0FBF1F0841C2046FDF7CAFBB4
:102B200010BD000034000020C0C62D0070B5044662
:102B30004CF2503564B104E0281EA5F1010500D126
:102B400070BD0A4800F052F80028F5D10120F7E7DF
:102B500004E0281EA5F1010500D1F1E7034800F0CB
:102B60004BF80028F5D10120EAE700000000024000
:102B70002DE9F04105460F4616460020FFF7D6FF27
:102B800010B9FF20BDE8F08100222946164800F068
:102B90007BF83946144800F039F80321124800F058
:102BA00031F80020FFF7C2FF08B9FF20EAE70E481E
:102BB00000F033F8C4B2FFF7A9FF31460A4800F02D
:102BC00025F80521084800F01DF80020FFF7AEFFAA
:102BD00008B9FF20D6E7044800F01FF8C0B204434C
:102BE000FFF794FF2046CDE700000240406810F058
:102BF000400018BF01207047406810F0010018BF66
:102C0000012070474160704780687047816070475D
:102C1000016A41F0100101627047406810F0010F35
:102C200005D110F0120F1CBF00F01C0070470020EF
:102C300070470000036A43F010030362002A14BFC8
:102C40000E4A0F4A02EB820301EB830302EB82027E
:102C500092005B1EB3FBF2F2521EC260D0F8C02F8E
:102C600012F0010F08BF7047064A1144521CB1FB15
:102C7000F2F1491E41F08001C1607047801A0600E0
:102C8000A08601007F47370142EA41010160704799
:102C900010B555480078012841D15448007878B9DA
:102CA00053480088401C524908800846008840F676
:102CB0003301884226D940F2E4704D49088021E072
:102CC0004A48007801280BD149488078401C48497F
:102CD0008870084680780C2814D90120887011E08B
:102CE0004348C078401C4249C8700A469178108811
:102CF000FEF772FA04463E48C078A04202DD012089
:102D00003B49C8703A4A91781088FEF765FA044644
:102D10003748C078A0425CDD3548C47059E032487D
:102D20000078022827D13148007850B9304800791E
:102D3000401C1821B0FBF1F201FB12002C49087174
:102D400047E02A48007801280AD129484079401CE8
:102D50003C21B0FBF1F201FB12002549487138E03B
:102D600023488079401C3C21B0FBF1F201FB1200AA
:102D70001F4988712DE01C480078032829D11B4881
:102D8000007850B91B480078401C1821B0FBF1F2C4
:102D900001FB12001749087018E014480078012858
:102DA0000AD114484078401C3C21B0FBF1F201FBF1
:102DB00012001049487009E00E488078401C3C2100
:102DC000B0FBF1F201FB12000A49887001200949A9
:102DD000C8700948006841F2883108440749086012
:102DE000012000F0E7FA10BD470000204800002055
:102DF0004A00002052000020280000205800002037
:102E000010B5FDF762FA002818BF012010BD70B59B
:102E10000546284601F000FC0446302C03DB392C23
:102E200001DC012070BD412C03DB5A2C01DC0120A8
:102E3000F8E7202C05D02D2C03D05F2C01D02E2CB0
:102E400001D10120EEE70020ECE7000009480078FE
:102E500020B10948007808B1012070470548007882
:102E600028B906480078022801D10120F5E70020A2
:102E7000F3E7000078000020F40000204400002068
:102E800001464FF4C870B1FBF0F200FB121008B914
:102E9000012070476420B1FBF0F200FB121008B96A
:102EA0000020F6E701F0030008B90120F1E7002057
:102EB000EFE710B50446207808B9002010BD06E001
:102EC0002078FFF7A4FF08B90020F7E7641C2078FA
:102ED0000028F5D10120F1E710B50446208840F222
:102EE000E471884204D3208840F63301884201D936
:102EF000002010BDA07810B1A0780C2801D90020C6
:102F0000F7E7E07830B1A1782088FEF765F9E1783D
:102F1000884201DA0020ECE72079172805D860798B
:102F20003B2802D8A0793B2801D90020E1E7012005
:102F3000DFE700002DE9F04100212220FFF7B0FD7E
:102F4000804603216248FEF771FDC6B26FEA0800B1
:102F5000C5B2002404E000205E490855601CC4B2DC
:102F60000A2CF8D3EDB28DB1681E284070B9002448
:102F700009E00120A040284018B10120554908551A
:102F800003E0601CC4B2082CF3D300BF06F00100BC
:102F900080F001004F490872012020EA5600487273
:102FA000002490E04B48005D4B49095D884256D1B2
:102FB00000204A4908554848005D00284ED048483E
:102FC00030F81400401C464921F8140064B9084642
:102FD00030F81400502807D34248005D20B9012082
:102FE00040490855FEF7E4FD042C0FD13E48007817
:102FF00060B93B4830F81400502807D33948005DC9
:1030000020B9012037490855FEF7C2FD082C0FD121
:103010003548007860B9324830F81400502807D39A
:103020003048005D20B901202E49085501F000FB11
:10303000022C13D12C48007880B1294830F81400B4
:1030400028280BD3264830F8140028380F21B0FB6D
:10305000F1F201FB120008B9FFF71AFE31E01F4838
:10306000005D401C1D4908550846005D032800D23C
:1030700027E00020194908551A48075D1548005DEA
:10308000154908550846005D70B10020144921F823
:10309000140014490855082C12D0042C10D001211A
:1030A0002046FEF75FFE0BE000200D4921F81400DA
:1030B0000C4807552046FEF775FF002009490855C2
:1030C00000BF601CC4B20A2CFFF46CAFBDE8F081F5
:1030D00000D00340150100201F010020290100201D
:1030E0003401002048010020470000202DE9F0476E
:1030F00007460D4690462021384600F04DFD064615
:103100002021284600F048FD8146464501DB4E451A
:1031100002DD0020BDE8F08700240CE0385D01F0FE
:103120007BFA8246285D01F077FA824501D00020C3
:10313000F0E7601CC4B2B442F0DB0120EAE72DE9FD
:10314000F0410546884600260027287810B900205F
:10315000BDE8F0811BE0287801F05EFA04463601F4
:10316000302C05DB392C03DCA4F1300006430BE0E6
:10317000412C07DB462C05DCA4F14100C0B20A302B
:10318000064301E00020E3E7781CC7B26D1C2878F5
:103190000028E0D10FB1022F01D90020D8E788F82C
:1031A00000600120D4E72DE9F04F99B081460F4629
:1031B00090469A4600244FF0010B484600F042FC2E
:1031C00081461DE04FEA4860000EA04203DC022069
:1031D00019B0BDE8F08F01A800EB04111022484699
:1031E00000F0C5F8814601A800EB0410007808B98A
:1031F0000220EDE7601CC4B2484600F023FC814683
:1032000099F800000028DDD10CB90120E0E704F0B6
:10321000010008B10220DBE76608464501DD022017
:10322000D6E7012E05D9694605A800F083F8834644
:1032300000BF00252AE0BBF1000F02D06B061B0E79
:1032400000E02B461946BBF1000F02D04B1CDBB24D
:1032500001E07319DBB21A46002013E001AB03EB67
:1032600001131B5C07EB451C0CF8003001AB03EBB2
:10327000021313F800C007EB4513103303F800C026
:10328000431CD8B21028E9D3681CC5B2B542D2DBC2
:103290008AF8006000209BE770B505460C460322C3
:1032A00018A12846FFF722FF18B100202070012046
:1032B00070BD062215A12846FFF718FF10B10120A6
:1032C0002070F5E7062214A12846FFF70FFF18B17A
:1032D000022020700120EBE7042212A12846FFF70C
:1032E00005FF18B1032020700120E1E704220FA19F
:1032F0002846FFF7FBFE18B1042020700120D7E715
:103300000020D5E744454641554C5400574F524B99
:103310005F53544152540000574F524B5F454E4447
:103320000000000057414B4500000000534F4E473E
:103330000000000010B502460023107808B90020F4
:1033400010BD0EE01078302802DB1078392801DD3E
:103350000020F5E71078303803EB830400EB4403DA
:10336000521C10780028EDD10B600120E8E72DE910
:10337000F04104460E4617460025204600F062FB49
:10338000044608E0681CB84200D30CE02078705571
:10339000681CC5B2641C207828B12078202802D08F
:1033A00020780928EED100BF002070552046BDE8E6
:1033B000F08100002DE9F043D1B007464FF000093D
:1033C000402141A8FDF7C8FC46480078012805D1F6
:1033D000402231A941A800F0C1F905E041AB42A269
:1033E000402131A8FDF714F8402201A931A801F0CD
:1033F0002DFC054631AB3CA2402121A8FDF708F881
:103400003A48007850B93A480078072806D1394838
:10341000007818B900208DF884000025082D35D9D2
:10342000A5F10800C4B2FFF711FDD0B1204600F0AD
:10343000C9F9804630480078404502DD2E4880F8C2
:10344000008021462C48007800F0C9F9064625483E
:103450000078012803D1A01B00F0FF0900E0B1466D
:1034600017E025480078A04202DD002022490870BC
:103470001C480078012805D11F480078201A00F068
:10348000FF0906E01C4890F8009002E000201A496D
:1034900008701A4B4A46294601A8FDF7F3FD144867
:1034A000007810B91548FDF7F1FA1448FDF7FAFA5B
:1034B000124800F027F8384601F07AFB2FB90922AC
:1034C0000F490E48FDF73AF948B10D490B4802681B
:1034D0000A6042684A60007A0872FDF7CBFF51B07B
:1034E000BDE8F08346000020257300005C0000204A
:1034F0006500002047000020640000207C010020BF
:103500008501002070B50546002411E0285DFEF716
:1035100095F809490855297A0120A040014029B1B0
:103520000548005D40F0800003490855601CC4B2A6
:10353000082CEBD370BD00009C00002010B54E4855
:1035400000F02CFA4C4800F0EDFF4C4800F01EFA59
:1035500000204B4908704B4908704B4908704B4993
:1035600008704B4908704B49086001204A490870AF
:1035700000204A4908704A48006800F57A704949B5
:1035800008600020484908704849087044480068AD
:1035900000F57A704649086001204649087046499E
:1035A0000870464908700020454908704549086080
:1035B0004549087045490860454908704549087003
:1035C0004549087045490870454908604549086003
:1035D0004549086045490860454908604549087003
:1035E00045490870454908604549087045490860E3
:1035F00045490870454908704549087045490870B3
:1036000045490860454908604549087045490870C2
:10361000454908702248006842F210710844434945
:10362000086009214248FDF7BDF8424800210160C9
:103630004160017240480160416000203F490870CC
:10364000FF203F490870002410E000203D49085544
:103650003D4908553D4908553D4921F814003D496B
:1036600008553D4941F82400601CC4B20A2CECD333
:1036700000F07CFA10BD000038000020400000205F
:1036800044000020450000204600002047000020A4
:1036900048000020580000205C0000205D00002051
:1036A0002800002060000020640000206500002049
:1036B000680000206C0000206D0000206E000020DB
:1036C000F40000207000002078000020740000202A
:1036D000790000207A0000207B0000207C00002080
:1036E000800000208400002088000020940000203A
:1036F000980000208E010020B5000020B8000020B6
:10370000BC000020C0000020A4000020A700002072
:10371000A8000020A9000020AC000020B00000207C
:10372000B4000020C4000020C5000020C800002014
:103730007C010020850100209C000020A5000020C5
:10374000A6000020150100201F01002029010020F3
:103750003401002048010020540100202DE9F041EF
:1037600080460D461646701EC1B2404600F014FA5F
:1037700007460EB9BDE8F081002406E0781E001B64
:1037800018F800002855601CC4B2BC42F6DB0020CB
:10379000E85500BFEEE7000010B50448007800B916
:1037A00010BD0120FDF7F0FF00BFF9E74700002042
:1037B000014609B900207047052901D80320FAE71E
:1037C0000220F8E770B504462046FFF7F1FF0546F2
:1037D0000DB9002070BD601C6843C0B2FAE72DE946
:1037E000F04705460C4614B90020BDE8F087204696
:1037F000FFF7DEFF07462046FFF7E4FF0646B54227
:1038000000DD35460DB90020EFE7681EC5B2601C2B
:10381000B5FBF0F8B5FBF0F100FB1159B84503DB3F
:10382000781E00F0FF08A146A14503DA09F1010066
:10383000C0B200E02046824608F0010018B1A4EBB7
:103840000A00C0B2D1E75046CFE700002DE9F041B1
:103850000024002500263D48007820B90020FEF70E
:1038600089F9BDE8F0813A4800683A490968884218
:1038700011D336480078022801D1012000E0002051
:10388000074600F073F917B133A001F069F9012080
:10389000FFF790FDE5E72D480078012802D1FEF7FB
:1038A00069F9DEE72A4800682F49096888424BD346
:1038B0002E48007808B9012000E000202B4908704C
:1038C000097809B1012100E000210846FEF752F90C
:1038D0001E48007802280BD12448007808B1B42093
:1038E00000E078201A49096808441F490860B8E7D1
:1038F0001F480078052810D2DFE800F01003060901
:103900000C001C4C06250CE01B4C042509E01B4C4C
:10391000042506E01A4C062503E000BF194C0225D9
:1039200000BF00BF1848007890FBF5F105FB1100BF
:1039300034F8106014480078401C1349087004489B
:10394000006830440849086000BF8AE7A7000020EB
:1039500028000020AC0000202A4556543A414C4132
:10396000524D5F4F46460000B0000020A9000020E5
:10397000A80000209E4D0000AA4D0000B24D00009E
:10398000BA4D00009A4D0000B400002007210170DC
:103990001E21417000218170C170704740F2EA71B0
:1039A0000180062181700221C170002101714171E5
:1039B0008171704770B50546002436E01D4951F805
:1039C0002400082100F0E8F806461A4850F82410B0
:1039D00032462846FFF78AFB28B314B94FF46170CA
:1039E00001E04FF48270064613480078072801D0A2
:1039F000012070BD114850F8240048B10F4850F81C
:103A000024000F490968081AB04201D20120F0E7EA
:103A10000B480068094941F8240000212046FEF7C0
:103A2000A1F90120E5E7601CC4B20A2CC6D300202E
:103A3000DFE70000000000206500002054010020A6
:103A40002800002000E0401C01782029FBD00178EC
:103A50000929F8D07047000010B502200B49087002
:103A600001200B4908700B48006842F210710844AD
:103A70000949086007480068B43008490860012017
:103A8000FEF778F806A001F06BF810BDA700002043
:103A9000A900002028000020AC000020B000002079
:103AA0002A4556543A414C41524D000010B5044647
:103AB00003200C4908700C48047001200B49087061
:103AC00000200B4908700B48006800F548600A495F
:103AD0000860084800687830084908600120FEF74F
:103AE00049F810BDA7000020A8000020A900002070
:103AF000B400002028000020AC000020B00000200E
:103B000010B50446012006490870064908700648A9
:103B100000682044054908600120FEF72BF810BD1D
:103B2000A7000020A900002028000020AC000020F1
:103B30000020094908600948007820B90120074998
:103B40000870074908700748006841F28831084446
:103B50000549086070470000C00000205C0000209C
:103B6000BC00002028000020B800002010B5002074
:103B7000054908700549087005490870054908702D
:103B8000FDF7F8FF10BD0000A7000020A8000020EE
:103B9000A9000020B40000200246002001E0431CE0
:103BA000D8B2135C0BB18842F9DB70472DE9F00302
:103BB000AF4D02462868AF4B1840A0F18053B3F5D3
:103BC000A02359D002F03809DFF8AC82C2F3841484
:103BD000B9F1100F25D0B9F1300F04BF47F23050C2
:103BE0004FF400130DD04FF03800904304BF4FF452
:103BF0000040C30105D012F0380F1CBF002003465F
:103C000013D09E4F12F4605F4FF0000618BF0022E1
:103C10002CD057F8324044457DD307EBC20252689E
:103C2000E1E0002340461524EBE7A4F10900122847
:103C300022D29348D5F87CC04FF04C7350F8240042
:103C40002CF01C0C072CA8BF4CF0100CC5F87CC045
:103C50002E6D4FF4002C16F4807FD2D1BCF1010CF4
:103C60000AD02E6D16F4807FF8D0CAE712F0380F14
:103C700018BFB9F1100F04D0BDE8F0034FF00000F9
:103C80007047C2F30268DFF8FCC14FF0000257F83A
:103C90003290E14503D307EBC202526803E0521CA5
:103CA000062AF4D33246C5F8C020D5F8B020DFF894
:103CB000D8C102EA0C0242F00042C5F8B020DFF899
:103CC000CCC1A4F109024C1E5CF828C0A444BCFB82
:103CD000F1FCD5F8B0101943C5F8B01008EBC801D5
:103CE00001EB41046A4902EB420201EBC40101EB22
:103CF00082046468C5F86441D5F864416FF0FF0838
:103D000008EB0C2C44EA0C0CC5F864C151F82210E5
:103D1000D5F8602100E061E002F400021143C5F82B
:103D20006011D5F86011D5F86021C1F38921C2F383
:103D30000904D5F86421C2F3042202F1010CD5F87C
:103D4000642102F01F02521CB0FBF2F04A09C2F1DA
:103D500000084443424301EB481104EB521248432C
:103D600002EB9020B0FBFCF041080846002257F817
:103D700032C0844503D307EBC200466802E0521C00
:103D8000062AF4D3C5F8C060D5F8600110F4000F1E
:103D90001DBFD5F8B00040F08040C5F8B000D5F8A0
:103DA000600104BF40F40000C5F860014FF400401A
:103DB000D5F8682112F0010F02D1401E0028F7DC6F
:103DC000002808BF002148D0D5F8B000184340F0C3
:103DD000010040F01040C5F8B0003EE0521C062A39
:103DE000FFF417AF3246C5F8C020D5F8602122F4A1
:103DF0000002C5F86021D5F8B020DFF898C002EACB
:103E00000C0242F00042C5F8B020002908BF4FF074
:103E1000000C0AD0B0FBF1FCBCF1000F18BFACF1F4
:103E2000010C0CF10101B0FBF1F10846002257F83A
:103E30003240844203D307EBC200466802E0521CC2
:103E4000062AF4D3C5F8C060D5F8B00043EA8C2246
:103E5000104340F00040C5F8B000D5F8B00020F4A1
:103E60007000C5F8B000BDE8F003084670470000D8
:103E700000E00F400000FF700024F400205200001A
:103E80000450000040787D0100FC0FE0FC4F000072
:103E900070500000FF0300EFC0F307230749C0B2D2
:103EA000194401F07043C1F3130143EA411141EA9F
:103EB000800040F0007001220260704700E60F4071
:103EC000C0F307220849C0B2114401F07042C1F3A7
:103ED000130142EA411141EA800040F0007000689D
:103EE000002818BF0120704700EA0F40C0F30723E5
:103EF0000C49C0B2194401F07043C1F3130143EA05
:103F0000411141EA800040F0007181B001220A6055
:103F1000002200920098401C00901028FAD30A60FA
:103F200001B0704700E50F404FF0E020016941F01B
:103F30000501016170474FF0E020016941F0020185
:103F4000016170474FF0E021401E4861704700005A
:103F500032480068401C3149086031480078C82860
:103F600004D22F480078401C2D4908702D48007855
:103F7000401C2C4908702C480078401C2A490870C5
:103F80002A480088401C2949088029480088401C8C
:103F900027490880234800780A280BD300202149AC
:103FA000087024480078642804D222480078401C15
:103FB000204908701C48007864280BD300201A4957
:103FC00008701D480078322804D21B480078401C35
:103FD0001949087015480088B0F5FA7F0BD3002006
:103FE0001249088015480078142804D21348007834
:103FF000401C124908700E480088B0F57A7F0BD338
:1040000000200B4908800E4800780A2804D20C488A
:104010000078401C0A490870704700002800002002
:104020002C000020E8000020E9000020EA00002029
:10403000EC0000202D0000202E0000202F0000208A
:10404000300000200448006840F470000249086015
:10405000024803490860704788ED00E00024F4003E
:10406000F000002010B500242E480078072851D118
:104070002D48FCF7B2FC2D48007802280DD12A48C3
:10408000007950B92848407938B92748807920B953
:10409000002027490870274908702748007808B988
:1040A000012000E000202449087001242348C07842
:1040B000B0B11D48007921490978884210D11A48C9
:1040C00040791E49497888420AD1174880791B49AE
:1040D0008978884204D11A48007808B9FFF7BCFCF7
:1040E0001848006818490968884200D9012417480F
:1040F000007878B11448006815490968884209D3E6
:10410000094800F059FA1048006842F2107108445A
:104110000F4908600CB1012100E000210846FFF7BB
:1041200049F910BD6500002038000020440000203F
:10413000640000207B0000206D0000204000002073
:10414000A7000020B800002028000020C6000020A2
:10415000C800002010B505480078072800D010BD21
:104160000020FFF727F900BFF9E7000065000020F5
:1041700070B5A6480078072802D1FEF7DBFE11E0F3
:1041800000240DE00020A2490855A2490855A24983
:104190000855A24921F81400A1490855601CC4B271
:1041A0000A2CEFD3FFF752FB9848007807284ED02F
:1041B0009C4800689C490968884248D39348007825
:1041C000401C9249087008460078012806D195489D
:1041D000006800F57A709449086035E08B480078F3
:1041E000022803D089480078042806D18D48006849
:1041F00000F57A708C49086026E08448007803282E
:1042000003D082480078052806D18648006800F56A
:104210007A708549086017E07C480078062806D146
:104220008048006800F57A707F4908600CE07748A4
:104230000078062808DD072074490870794800686E
:1042400000F57A70794908600120FFF7B3F87848E3
:10425000007840B17348006876490968884202D303
:104260000020FDF791FA7448007898B173480078FF
:1042700040B16C48006872490968401A42F6E06132
:10428000884207D3FCF7A2FE6EA000F069FC012073
:10429000FFF790F86848007868B16D48006850B141
:1042A000604800686A490968884204D3FCF78EFEBA
:1042B0000120FFF77FF86748006850B1594800684F
:1042C00064490968884204D3FDF7C8FA0120FFF762
:1042D00071F861480068A8B1524800685E490968F1
:1042E00088420FD300205C4908605CA209215D4828
:1042F000FCF78EF800205C490870FFF719FC0120DC
:10430000FFF758F8474800684849096888427BD356
:104310003E480078072877D147480078E8B34748F7
:104320000078D0B351480078B8B350480078FFF710
:1043300049FA05464E480078A8421BDA4C480078F6
:10434000401C4B49087008460078A84224DB4948C5
:10435000007808BB3E480068F0B901204549087064
:10436000FCF7CEFE2F490968084400F5FA60384989
:10437000086011E03F48007870B93548006858B9C6
:1043800001203C490870FCF7BBFE26490968084437
:1043900000F5FA602E4908602CE0FFE72648007817
:1043A00018B100203249087024E033480078022810
:1043B0001BD1FCF7E7FE05462846FFF703FA064641
:1043C00095B12E48007878B929480078B04204DACF
:1043D00027480078401C2649087025480078B042DC
:1043E00002DB01202549087004E021480078401CC8
:1043F0001F490870FCF784FE0A49096808440B4904
:1044000008600020FEF7D6FF70BD000065000020A8
:10441000150100201F010020290100203401002087
:1044200048010020280000206800002060000020D3
:10443000470000205800002078000020F4000020F1
:10444000700000204552524F5220535441544500B1
:1044500074000020B8000020C00000204E4F2057FC
:10446000580000008E010020B500002079000020D7
:10447000640000207A000020440000207B0000201F
:1044800010B50A48007808B9012000E0002007496B
:1044900008700748007808B9012000E000200449AE
:1044A00008700020FEF786FF10BD00006C000020A1
:1044B0006E0000200146D1E9000250408A68504059
:1044C000CA685040014A5040704700005A5AA5A59A
:1044D00010B500200F4908700F48006842F21071B3
:1044E00008440E4908600E48FFF7D6FC00BF0C4890
:1044F000FFF7E6FC0028FAD0FCF7CEFE0446012CBC
:1045000002D1FCF7C9FE044614B901200149087024
:1045100010BD0000C600002028000020C8000020B8
:10452000005800F010B588B004462148007810B952
:10453000002008B010BD1422002103A8FCF780FF62
:104540001C490398884209D10498B0F1011F05D194
:1045500003A8FFF7AFFF0799884201D00020E8E7E2
:104560004FF6FF71059801EA1040ADF80400059878
:10457000000A8DF806000598C0B28DF8070006986D
:10458000000C8DF808000698000A8DF809000698BE
:10459000C0B28DF80A0001A8FEF79EFC08B9002001
:1045A000C7E701982060029860600120C1E7000021
:1045B000C60000204B4C435310B586B00446144847
:1045C000007818B12046FEF787FC08B906B010BD88
:1045D000104801904FF00110029020880004A1784B
:1045E00040EA0120E17808430390207900046179D2
:1045F00040EA0120A1790843049001A8FFF75AFF7F
:1046000005901422002101A8FCF768FE00BFDDE739
:10461000C60000204B4C43530146612905DB7A2933
:1046200003DCA1F12000C0B270470846FCE700009F
:1046300010B51048006810490968401AB0F5617F4C
:1046400000D210BD0B4800680B490860094800689B
:104650000A4908600A48007808B9012000E00020F3
:10466000074908700120FEF7A5FEFCF7C9FF00BF4F
:10467000E7E7000028000020900000208C000020C8
:104680004500002070B505467F212846FFF784FAD3
:10469000044603E00021601E2954C4B23CB1601EF0
:1046A000285C2028F6D0601E285C0928F2D070BD56
:1046B00010B51448FFF7F0FB1348FFF7EDFB00BF00
:1046C0001048FFF7FDFB0028FAD00F48FFF7F8FB72
:1046D0000028F5D00120FDF787F940F20140FDF7F1
:1046E00083F903214FF04020FDF7DBF960234FF4FD
:1046F000E13206480168064800F01FF8044800F05F
:1047000053F810BD001800F0000800F0340000203D
:1047100000C00040816911F0100F0CBF00684FF01D
:10472000FF307047826912F0200FFBD101607047A3
:104730008069012121EA10107047D0F818C01CF0E0
:10474000080FFAD1D0F82CC02CF0100CC0F82CC0F7
:10475000D0F830C02CF0010C2CF4407CC0F830C0F4
:10476000D0F830C0B1EB021F34BF4CF0200C2CF05D
:10477000200CC0F830C038BF5208C900B1FBF2F1BC
:10478000491C49088A09426201F03F018162C36203
:1047900000218161C16A41F01001C162016B40F2E8
:1047A0000132114301637047C16A41F01001C162D7
:1047B000016B40F2013211430163704710B540E0D4
:1047C0002348FFF7A7FF0446002C00DA3EE021480B
:1047D000006800F59670204908600D2C01D00A2C65
:1047E0001DD11E48007858B100201D4908701B4992
:1047F00008701CA000F084F90120FEF7DBFD20E02A
:104800001748007850B100201749154A127888548B
:10481000084600F02BF800201149087011E01048FC
:104820000078402803D301200C49087009E00E49A4
:104830000B4A12788C540A480078401C08490870CA
:1048400000BF0348FFF774FF0028B9D100BF10BDB7
:1048500000C000402800002084000020C500002087
:10486000C40000204C454E009701002070B58EB06A
:1048700005462846FFF706FF2846FFF7E3F80446FB
:10488000207808B90EB070BD05227CA12046FEF745
:104890002DFC78B17B4800684FF47A71B0FBF1F6DB
:1048A000334679A2202101A8FBF7B2FD01A800F050
:1048B00057F9E7E7042277A12046FEF717FC50B12D
:1048C000FEF73CFE002000F02FF90120FEF772FDFC
:1048D000FCF796FED6E72078FFF79EFE2A2809D13E
:1048E0006078FFF799FE532808D06078FFF794FEB0
:1048F000472803D069A000F003F9C3E76078FFF709
:104900008BFE532878D1A078FFF786FE4528F9D191
:10491000E078FFF781FE5428F4D120793A28F1D1CC
:10492000641D142209A92046FEF721FD04462046F5
:10493000FFF788F8044604225AA109A8FEF7D6FB1F
:1049400018B12046FDF74EFC9CE7042257A109A8A8
:10495000FEF7CCFB18B12046FDF7B2FE92E7052228
:1049600054A109A8FEF7C2FB18B12046FDF752FB7F
:1049700088E7042251A109A8FEF7B8FB18B1204628
:10498000FDF706FD7EE706224EA109A8FEF7AEFB65
:1049900018B12046FDF736FD74E703224BA109A8A4
:1049A000FEF7A4FB18B12046FDF79EFD6AE704223E
:1049B00047A109A8FEF79AFB18B12046FDF7E0FBD6
:1049C00060E7032244A109A8FEF790FB18B1204636
:1049D000FDF754FD56E7032240A109A8FEF786FB28
:1049E00078B12046FFF72EF80646FEF7E3FF20B128
:1049F000002000F099F803E025E039A000F080F8ED
:104A000040E7042238A109A8FEF770FB18B1204640
:104A1000FDF7FCFD36E7042235A109A8FEF766FB89
:104A200018B12046FDF700FF2CE7042232A109A8A7
:104A3000FEF75CFB18B12046FDF71EFE22E728A01A
:104A400000F05EF81EE76078FFF7E6FD472810D11A
:104A5000A078FFF7E1FD45280BD1E078FFF7DCFDFA
:104A6000542806D120793A2803D1601DFDF7AAF811
:104A700008E70AA000F044F800BF03E72A50494EB7
:104A800047000000280000202A504F4E4720256C88
:104A9000750000002A5253540000000053594E5430
:104AA00041580000444154450000000054494D4520
:104AB00000000000414C41524D0000004449535059
:104AC0004C415900464F524D415400004D53470050
:104AD00042454550000000004C4544004B455900FC
:104AE000504152414D0000004D4F44450000000030
:104AF000574541544845520052494E470000000076
:104B000010B58CB00446234604A230216846FBF75A
:104B10007FFC684600F024F80CB010BD4552524F9F
:104B2000522025730000000010B598B004460CB167
:104B3000207820B907A000F013F818B010BD234664
:104B400005A260216846FBF763FC684600F008F8A0
:104B500000BFF2E74F4B00004F4B202573000000D1
:104B600010B50446204600F007F802A000F004F853
:104B700010BD00000D0A000010B5044604B910BDB8
:104B800004E021780748FFF7CDFD641C2078002859
:104B9000F7D10548006800F596700449086000BF29
:104BA000EDE7000000C00040280000208800002041
:104BB00070B50446FCF732F805461C48007840B949
:104BC0001B480078072804D11A48007808B901204A
:104BD00000E0002006463EB91748006817490968FA
:104BE000884201D9164805781648057024B900781E
:104BF0001549097888420ED0124800781249087089
:104C000010480078C043C2B201211820FDF7B0FF60
:104C1000FCF7DEFC70BD0B480078C043C2B2012136
:104C20001820FDF7A5FF00BFF4E700005C0000209E
:104C300065000020470000208000002028000020A0
:104C40007C000020A5000020A600002030B503460F
:104C5000002016E01C782E2C06D188B10125441EB8
:104C600001EB440465700BE0904200DB0CE01C7823
:104C700001F81040002401EB40056C70441CE0B2C8
:104C80005B1C1C78002CE5D100BF30BD30380A28F1
:104C900001D201207047002070470000FCF7D4F9D2
:104CA000FCF710FFFDF7A0FEFFF702FDFFF710FC79
:104CB000FEF744FC0120FEF77DFB2BA0FFF750FF21
:104CC00050E0FFF77BFD04240AE02C480078401EEA
:104CD0002A490870601EC4B2FCF7B4FAFFF76EFDF3
:104CE0002648007808B1002CEFD102240AE02448BD
:104CF0000078401E22490870601EC4B2FFF738FADF
:104D0000FFF75CFD1E48007808B1002CEFD10224AB
:104D10000AE01C480078401E1A490870601EC4B2A0
:104D2000FFF718FAFFF74AFD1648007808B1002C83
:104D3000EFD11548007840B113480078401E124961
:104D40000870FFF79DFBFFF739FD1048007840B170
:104D50000E480078401E0D490870FFF783F9FFF7F1
:104D60002DFD00BFADE700005338303020434C4FDD
:104D7000434B205245414459000000002C000020C4
:104D80002D0000202E0000202F00002030000020E9
:104D90004FF04070E1EE100A7047A0008C005A00FE
:104DA00046005A004600B400DC00B4005A00780007
:104DB0000401A4017800A401DC005A003C008C002E
:104DC0003C006E00B4001F1C1F1E1F1E1F1F1E1F55
:104DD0001E1F000000400040100000000080054041
:104DE000100000000050004011000000009005403D
:104DF00011000000006000401200000000A005400B
:104E000012000000007000401300000000B00540D8
:104E100013000000004002401400000000C00540E4
:104E200014000000005002402E00000000D0054099
:104E30002E000000006002402F00000000E005404E
:104E40002F000000007002403000000000F005401C
:104E50003000000000D00340460000000000064083
:104E600046000000001006404700000000200640F9
:104E700048000000003006407F000000004006406F
:104E800080000000005006408400000000600640E2
:104E90008C00000000400040100000000080054031
:104EA000100000000050004011000000009005407C
:104EB00011000000006000401200000000A005404A
:104EC00012000000007000401300000000B0054018
:104ED00013000000004002401400000000C0054024
:104EE00014000000005002402E00000000D00540D9
:104EF0002E000000006002402F00000000E005408E
:104F00002F000000007002403000000000F005405B
:104F10003000000000D003404300000000000640C5
:104F2000430000000010064044000000002006403E
:104F300045000000003006405800000000400640D8
:104F400059000000005006405C0000000060064070
:104F500064000000007006406C0000000080064005
:104F60006D000000009006407F00000000400040FF
:104F70000080054000500040009005400060004067
:104F800000A005400070004000B005400040024015
:104F900000C005400050024000D0054000600240C3
:104FA00000E005400070024000F0054000D00340E2
:104FB0000000064000100640001006400020064099
:104FC0000020064000300640003006400040064009
:104FD0000040064000500640005006400060064079
:104FE00000600640007006400070064000800640E9
:104FF0000080064000900640009006400068890945
:10500000001C4E0E40420F0000201C0080841E0039
:1050100000802500999E36000040380000093D00C0
:1050200000803E0000004B00404B4C0000204E0032
:10503000808D5B0000C05D000080700000127A006F
:1050400000007D0080969800001BB7000080BB0028
:10505000C0E8CE00647ADA000024F4000000FA0010
:1050600080A81201002D310100366E0140787D01CB
:105070004000000000000000000100003E000800A9
:105080000000000000010000A0000000020000007D
:105090000001000034540100000000000001000085
:1050A0002B70060000000000000100002800000036
:1050B00000000000000100002700010000000000C7
:1050C00000010000200000000000000000010000BE
:1050D0005000000002000000000100001AAC0000B7
:1050E000000000000001000017940900000000000B
:1050F00000010000169805000000000000010000FB
:1051000014000000000000000001000013800800EF
:105110000000000000010000A000000008000000E6
:10512000000100001000000000000000000100006D
:105130002800000002000000000100004000000004
:1051400004000000000100006000000000000000FA
:10515000000100005D000C000000000000010000E4
:105160005000000000000000000100004E0002009E
:10517000000000000001000041AC01000000000040
:10518000000100003C0000000000000000010000E1
:105190003A8009000000000000010000300000001B
:1051A00000000000000100002800000000000000D6
:1051B00000010000270001000000000000010000C5
:1051C00023600600000000000001000021600800CC
:1051D00000000000000100001E00000000000000B0
:1051E000000100001DC004000000000000010000DC
:1051F0005000000002000000000100001800000044
:105200000000000000010000140000000000000089
:105210000001000060000000040000000001000028
:105220000024F40030003000005A62029100910026
:1052300000879303D200D20000B4C4041301130109
:1052400000E1F50554015401000E27079501950171
:1052500030313233343536373839414243444546AC
:1052600040305800303132333435363738396162A6
:1052700063646566403078000400000800000000A8
:1052800000000002000100001000000055534552CC
:1052900031000000555345523200000046554E4340
:1052A00000000000414444005350454544000000C4
:1052B000534156450000000044495350000000008F
:1052C000464F524D41540000534849465400000097
:1052D0004558540046524944415900004D4F4E44F0
:1052E0004159000053554E44415900005341545513
:1052F00052444159000000005745444E4553444133
:1053000059000000545545534441590054485552E2
:1053100053444159000000003853000000000020B1
:10532000F40000003C0200002C540000F4000020B7
:1053300044090000580200009C520000C8520000BE
:10534000A4520000B0520000B8520000A852000061
:10535000C0520000D05200008C5200009452000055
:10536000000000000000000000000000000000003D
:10537000000000000000000000000000000000002D
:10538000000000000000000000000000000000001D
:10539000000000000000000000000000000000000D
:1053A00000000000000000000000000000000000FD
:1053B00000000000000000000000000000000000ED
:1053C00000000000000000000000000000000000DD
:1053D00000000000000000000000000000000000CD
:1053E00000000000000000000000000000000000BD
:1053F00000000000000000000000000000000000AD
:1054000000000000DC52000004530000F8520000CD
:105410000C530000D4520000EC520000E452000093
:0C54200000000000000000000024F40068
:0400000500000201F4
:00000001FF
